{
  "_format": "hh-sol-artifact-1",
  "contractName": "SoulBoundToken",
  "sourceName": "contracts/SBT.sol",
  "abi": [
    {
      "inputs": [],
      "stateMutability": "nonpayable",
      "type": "constructor"
    },
    {
      "anonymous": false,
      "inputs": [
        {
          "indexed": true,
          "internalType": "address",
          "name": "owner",
          "type": "address"
        },
        {
          "indexed": true,
          "internalType": "address",
          "name": "approved",
          "type": "address"
        },
        {
          "indexed": true,
          "internalType": "uint256",
          "name": "tokenId",
          "type": "uint256"
        }
      ],
      "name": "Approval",
      "type": "event"
    },
    {
      "anonymous": false,
      "inputs": [
        {
          "indexed": true,
          "internalType": "address",
          "name": "owner",
          "type": "address"
        },
        {
          "indexed": true,
          "internalType": "address",
          "name": "operator",
          "type": "address"
        },
        {
          "indexed": false,
          "internalType": "bool",
          "name": "approved",
          "type": "bool"
        }
      ],
      "name": "ApprovalForAll",
      "type": "event"
    },
    {
      "anonymous": false,
      "inputs": [
        {
          "indexed": true,
          "internalType": "address",
          "name": "previousOwner",
          "type": "address"
        },
        {
          "indexed": true,
          "internalType": "address",
          "name": "newOwner",
          "type": "address"
        }
      ],
      "name": "OwnershipTransferred",
      "type": "event"
    },
    {
      "anonymous": false,
      "inputs": [
        {
          "indexed": true,
          "internalType": "address",
          "name": "from",
          "type": "address"
        },
        {
          "indexed": true,
          "internalType": "address",
          "name": "to",
          "type": "address"
        },
        {
          "indexed": true,
          "internalType": "uint256",
          "name": "tokenId",
          "type": "uint256"
        }
      ],
      "name": "Transfer",
      "type": "event"
    },
    {
      "inputs": [
        {
          "internalType": "address",
          "name": "to",
          "type": "address"
        },
        {
          "internalType": "uint256",
          "name": "tokenId",
          "type": "uint256"
        }
      ],
      "name": "approve",
      "outputs": [],
      "stateMutability": "nonpayable",
      "type": "function"
    },
    {
      "inputs": [
        {
          "internalType": "address",
          "name": "owner",
          "type": "address"
        }
      ],
      "name": "balanceOf",
      "outputs": [
        {
          "internalType": "uint256",
          "name": "",
          "type": "uint256"
        }
      ],
      "stateMutability": "view",
      "type": "function"
    },
    {
      "inputs": [
        {
          "internalType": "uint256",
          "name": "tokenId",
          "type": "uint256"
        }
      ],
      "name": "burn",
      "outputs": [],
      "stateMutability": "nonpayable",
      "type": "function"
    },
    {
      "inputs": [
        {
          "internalType": "uint256",
          "name": "tokenId",
          "type": "uint256"
        }
      ],
      "name": "getApproved",
      "outputs": [
        {
          "internalType": "address",
          "name": "",
          "type": "address"
        }
      ],
      "stateMutability": "view",
      "type": "function"
    },
    {
      "inputs": [
        {
          "internalType": "address",
          "name": "owner",
          "type": "address"
        },
        {
          "internalType": "address",
          "name": "operator",
          "type": "address"
        }
      ],
      "name": "isApprovedForAll",
      "outputs": [
        {
          "internalType": "bool",
          "name": "",
          "type": "bool"
        }
      ],
      "stateMutability": "view",
      "type": "function"
    },
    {
      "inputs": [],
      "name": "name",
      "outputs": [
        {
          "internalType": "string",
          "name": "",
          "type": "string"
        }
      ],
      "stateMutability": "view",
      "type": "function"
    },
    {
      "inputs": [],
      "name": "owner",
      "outputs": [
        {
          "internalType": "address",
          "name": "",
          "type": "address"
        }
      ],
      "stateMutability": "view",
      "type": "function"
    },
    {
      "inputs": [
        {
          "internalType": "uint256",
          "name": "tokenId",
          "type": "uint256"
        }
      ],
      "name": "ownerOf",
      "outputs": [
        {
          "internalType": "address",
          "name": "",
          "type": "address"
        }
      ],
      "stateMutability": "view",
      "type": "function"
    },
    {
      "inputs": [],
      "name": "renounceOwnership",
      "outputs": [],
      "stateMutability": "nonpayable",
      "type": "function"
    },
    {
      "inputs": [
        {
          "internalType": "address",
          "name": "to",
          "type": "address"
        },
        {
          "internalType": "string",
          "name": "uri",
          "type": "string"
        }
      ],
      "name": "safeMint",
      "outputs": [],
      "stateMutability": "nonpayable",
      "type": "function"
    },
    {
      "inputs": [
        {
          "internalType": "address",
          "name": "from",
          "type": "address"
        },
        {
          "internalType": "address",
          "name": "to",
          "type": "address"
        },
        {
          "internalType": "uint256",
          "name": "tokenId",
          "type": "uint256"
        }
      ],
      "name": "safeTransferFrom",
      "outputs": [],
      "stateMutability": "nonpayable",
      "type": "function"
    },
    {
      "inputs": [
        {
          "internalType": "address",
          "name": "from",
          "type": "address"
        },
        {
          "internalType": "address",
          "name": "to",
          "type": "address"
        },
        {
          "internalType": "uint256",
          "name": "tokenId",
          "type": "uint256"
        },
        {
          "internalType": "bytes",
          "name": "data",
          "type": "bytes"
        }
      ],
      "name": "safeTransferFrom",
      "outputs": [],
      "stateMutability": "nonpayable",
      "type": "function"
    },
    {
      "inputs": [
        {
          "internalType": "address",
          "name": "operator",
          "type": "address"
        },
        {
          "internalType": "bool",
          "name": "approved",
          "type": "bool"
        }
      ],
      "name": "setApprovalForAll",
      "outputs": [],
      "stateMutability": "nonpayable",
      "type": "function"
    },
    {
      "inputs": [
        {
          "internalType": "bytes4",
          "name": "interfaceId",
          "type": "bytes4"
        }
      ],
      "name": "supportsInterface",
      "outputs": [
        {
          "internalType": "bool",
          "name": "",
          "type": "bool"
        }
      ],
      "stateMutability": "view",
      "type": "function"
    },
    {
      "inputs": [],
      "name": "symbol",
      "outputs": [
        {
          "internalType": "string",
          "name": "",
          "type": "string"
        }
      ],
      "stateMutability": "view",
      "type": "function"
    },
    {
      "inputs": [
        {
          "internalType": "uint256",
          "name": "tokenId",
          "type": "uint256"
        }
      ],
      "name": "tokenURI",
      "outputs": [
        {
          "internalType": "string",
          "name": "",
          "type": "string"
        }
      ],
      "stateMutability": "view",
      "type": "function"
    },
    {
      "inputs": [
        {
          "internalType": "address",
          "name": "from",
          "type": "address"
        },
        {
          "internalType": "address",
          "name": "to",
          "type": "address"
        },
        {
          "internalType": "uint256",
          "name": "tokenId",
          "type": "uint256"
        }
      ],
      "name": "transferFrom",
      "outputs": [],
      "stateMutability": "nonpayable",
      "type": "function"
    },
    {
      "inputs": [
        {
          "internalType": "address",
          "name": "newOwner",
          "type": "address"
        }
      ],
      "name": "transferOwnership",
      "outputs": [],
      "stateMutability": "nonpayable",
      "type": "function"
    }
  ],
  "bytecode": "0x60806040523480156200001157600080fd5b50604080518082018252600e81526d29b7bab62137bab7322a37b5b2b760911b60208083019182528351808501909452600384526214d09560ea1b9084015281519192916200006391600091620000f2565b50805162000079906001906020840190620000f2565b50505062000096620000906200009c60201b60201c565b620000a0565b620001d5565b3390565b600780546001600160a01b038381166001600160a01b0319831681179093556040519116919082907f8be0079c531659141344cd1fd0a4f28419497f9722a3daafe3b4186f6b6457e090600090a35050565b828054620001009062000198565b90600052602060002090601f0160209004810192826200012457600085556200016f565b82601f106200013f57805160ff19168380011785556200016f565b828001600101855582156200016f579182015b828111156200016f57825182559160200191906001019062000152565b506200017d92915062000181565b5090565b5b808211156200017d576000815560010162000182565b600181811c90821680620001ad57607f821691505b60208210811415620001cf57634e487b7160e01b600052602260045260246000fd5b50919050565b61191f80620001e56000396000f3fe608060405234801561001057600080fd5b50600436106101165760003560e01c8063715018a6116100a2578063b88d4fde11610071578063b88d4fde14610239578063c87b56dd1461024c578063d204c45e1461025f578063e985e9c514610272578063f2fde38b146102ae57600080fd5b8063715018a6146102055780638da5cb5b1461020d57806395d89b411461021e578063a22cb4651461022657600080fd5b806323b872dd116100e957806323b872dd1461019857806342842e0e146101ab57806342966c68146101be5780636352211e146101d157806370a08231146101e457600080fd5b806301ffc9a71461011b57806306fdde0314610143578063081812fc14610158578063095ea7b314610183575b600080fd5b61012e61012936600461161d565b6102c1565b60405190151581526020015b60405180910390f35b61014b610313565b60405161013a9190611705565b61016b610166366004611655565b6103a5565b6040516001600160a01b03909116815260200161013a565b6101966101913660046115f4565b6103cc565b005b6101966101a63660046114a7565b6104e7565b6101966101b93660046114a7565b610518565b6101966101cc366004611655565b610533565b61016b6101df366004611655565b6105ab565b6101f76101f236600461145b565b61060b565b60405190815260200161013a565b610196610691565b6007546001600160a01b031661016b565b61014b6106a5565b61019661023436600461155b565b6106b4565b6101966102473660046114e2565b6106c3565b61014b61025a366004611655565b6106fb565b61019661026d366004611595565b610706565b61012e610280366004611475565b6001600160a01b03918216600090815260056020908152604080832093909416825291909152205460ff1690565b6101966102bc36600461145b565b61073d565b60006001600160e01b031982166380ac58cd60e01b14806102f257506001600160e01b03198216635b5e139f60e01b145b8061030d57506301ffc9a760e01b6001600160e01b03198316145b92915050565b60606000805461032290611827565b80601f016020809104026020016040519081016040528092919081815260200182805461034e90611827565b801561039b5780601f106103705761010080835404028352916020019161039b565b820191906000526020600020905b81548152906001019060200180831161037e57829003601f168201915b5050505050905090565b60006103b0826107b3565b506000908152600460205260409020546001600160a01b031690565b60006103d7826105ab565b9050806001600160a01b0316836001600160a01b0316141561044a5760405162461bcd60e51b815260206004820152602160248201527f4552433732313a20617070726f76616c20746f2063757272656e74206f776e656044820152603960f91b60648201526084015b60405180910390fd5b336001600160a01b038216148061046657506104668133610280565b6104d85760405162461bcd60e51b815260206004820152603e60248201527f4552433732313a20617070726f76652063616c6c6572206973206e6f7420746f60448201527f6b656e206f776e6572206e6f7220617070726f76656420666f7220616c6c00006064820152608401610441565b6104e28383610812565b505050565b6104f13382610880565b61050d5760405162461bcd60e51b81526004016104419061176a565b6104e28383836108ff565b6104e2838383604051806020016040528060008152506106c3565b3361053d826105ab565b6001600160a01b03161461059f5760405162461bcd60e51b815260206004820152602360248201527f4f6e6c79206f776e6572206f662074686520746f6b656e2063616e206275726e604482015262081a5d60ea1b6064820152608401610441565b6105a881610a9b565b50565b6000818152600260205260408120546001600160a01b03168061030d5760405162461bcd60e51b8152602060048201526018602482015277115490cdcc8c4e881a5b9d985b1a59081d1bdad95b88125160421b6044820152606401610441565b60006001600160a01b0382166106755760405162461bcd60e51b815260206004820152602960248201527f4552433732313a2061646472657373207a65726f206973206e6f7420612076616044820152683634b21037bbb732b960b91b6064820152608401610441565b506001600160a01b031660009081526003602052604090205490565b610699610aa4565b6106a36000610afe565b565b60606001805461032290611827565b6106bf338383610b50565b5050565b6106cd3383610880565b6106e95760405162461bcd60e51b81526004016104419061176a565b6106f584848484610c1f565b50505050565b606061030d82610c52565b61070e610aa4565b600061071960085490565b9050610729600880546001019055565b6107338382610d5b565b6104e28183610d75565b610745610aa4565b6001600160a01b0381166107aa5760405162461bcd60e51b815260206004820152602660248201527f4f776e61626c653a206e6577206f776e657220697320746865207a65726f206160448201526564647265737360d01b6064820152608401610441565b6105a881610afe565b6000818152600260205260409020546001600160a01b03166105a85760405162461bcd60e51b8152602060048201526018602482015277115490cdcc8c4e881a5b9d985b1a59081d1bdad95b88125160421b6044820152606401610441565b600081815260046020526040902080546001600160a01b0319166001600160a01b0384169081179091558190610847826105ab565b6001600160a01b03167f8c5be1e5ebec7d5bd14f71427d1e84f3dd0314c0f7b2291e5b200ac8c7c3b92560405160405180910390a45050565b60008061088c836105ab565b9050806001600160a01b0316846001600160a01b031614806108d357506001600160a01b0380821660009081526005602090815260408083209388168352929052205460ff165b806108f75750836001600160a01b03166108ec846103a5565b6001600160a01b0316145b949350505050565b826001600160a01b0316610912826105ab565b6001600160a01b0316146109765760405162461bcd60e51b815260206004820152602560248201527f4552433732313a207472616e736665722066726f6d20696e636f72726563742060448201526437bbb732b960d91b6064820152608401610441565b6001600160a01b0382166109d85760405162461bcd60e51b8152602060048201526024808201527f4552433732313a207472616e7366657220746f20746865207a65726f206164646044820152637265737360e01b6064820152608401610441565b6109e3600082610812565b6001600160a01b0383166000908152600360205260408120805460019290610a0c9084906117e4565b90915550506001600160a01b0382166000908152600360205260408120805460019290610a3a9084906117b8565b909155505060008181526002602052604080822080546001600160a01b0319166001600160a01b0386811691821790925591518493918716917fddf252ad1be2c89b69c2b068fc378daa952ba7f163c4a11628f55a4df523b3ef91a4505050565b6105a881610e0f565b6007546001600160a01b031633146106a35760405162461bcd60e51b815260206004820181905260248201527f4f776e61626c653a2063616c6c6572206973206e6f7420746865206f776e65726044820152606401610441565b600780546001600160a01b038381166001600160a01b0319831681179093556040519116919082907f8be0079c531659141344cd1fd0a4f28419497f9722a3daafe3b4186f6b6457e090600090a35050565b816001600160a01b0316836001600160a01b03161415610bb25760405162461bcd60e51b815260206004820152601960248201527f4552433732313a20617070726f766520746f2063616c6c6572000000000000006044820152606401610441565b6001600160a01b03838116600081815260056020908152604080832094871680845294825291829020805460ff191686151590811790915591519182527f17307eab39ab6107e8899845ad3d59bd9653f200f220920489ca2b5937696c31910160405180910390a3505050565b610c2a8484846108ff565b610c3684848484610e4f565b6106f55760405162461bcd60e51b815260040161044190611718565b6060610c5d826107b3565b60008281526006602052604081208054610c7690611827565b80601f0160208091040260200160405190810160405280929190818152602001828054610ca290611827565b8015610cef5780601f10610cc457610100808354040283529160200191610cef565b820191906000526020600020905b815481529060010190602001808311610cd257829003601f168201915b505050505090506000610d0d60408051602081019091526000815290565b9050805160001415610d20575092915050565b815115610d52578082604051602001610d3a929190611699565b60405160208183030381529060405292505050919050565b6108f784610f5c565b6106bf828260405180602001604052806000815250610fd0565b6000828152600260205260409020546001600160a01b0316610df05760405162461bcd60e51b815260206004820152602e60248201527f45524337323155524953746f726167653a2055524920736574206f66206e6f6e60448201526d32bc34b9ba32b73a103a37b5b2b760911b6064820152608401610441565b600082815260066020908152604090912082516104e2928401906112fa565b610e1881611003565b60008181526006602052604090208054610e3190611827565b1590506105a85760008181526006602052604081206105a89161137e565b60006001600160a01b0384163b15610f5157604051630a85bd0160e11b81526001600160a01b0385169063150b7a0290610e939033908990889088906004016116c8565b602060405180830381600087803b158015610ead57600080fd5b505af1925050508015610edd575060408051601f3d908101601f19168201909252610eda91810190611639565b60015b610f37573d808015610f0b576040519150601f19603f3d011682016040523d82523d6000602084013e610f10565b606091505b508051610f2f5760405162461bcd60e51b815260040161044190611718565b805181602001fd5b6001600160e01b031916630a85bd0160e11b1490506108f7565b506001949350505050565b6060610f67826107b3565b6000610f7e60408051602081019091526000815290565b90506000815111610f9e5760405180602001604052806000815250610fc9565b80610fa88461109e565b604051602001610fb9929190611699565b6040516020818303038152906040525b9392505050565b610fda83836111b8565b610fe76000848484610e4f565b6104e25760405162461bcd60e51b815260040161044190611718565b600061100e826105ab565b905061101b600083610812565b6001600160a01b03811660009081526003602052604081208054600192906110449084906117e4565b909155505060008281526002602052604080822080546001600160a01b0319169055518391906001600160a01b038416907fddf252ad1be2c89b69c2b068fc378daa952ba7f163c4a11628f55a4df523b3ef908390a45050565b6060816110c25750506040805180820190915260018152600360fc1b602082015290565b8160005b81156110ec57806110d681611862565b91506110e59050600a836117d0565b91506110c6565b60008167ffffffffffffffff81111561111557634e487b7160e01b600052604160045260246000fd5b6040519080825280601f01601f19166020018201604052801561113f576020820181803683370190505b5090505b84156108f7576111546001836117e4565b9150611161600a8661187d565b61116c9060306117b8565b60f81b81838151811061118f57634e487b7160e01b600052603260045260246000fd5b60200101906001600160f81b031916908160001a9053506111b1600a866117d0565b9450611143565b6001600160a01b03821661120e5760405162461bcd60e51b815260206004820181905260248201527f4552433732313a206d696e7420746f20746865207a65726f20616464726573736044820152606401610441565b6000818152600260205260409020546001600160a01b0316156112735760405162461bcd60e51b815260206004820152601c60248201527f4552433732313a20746f6b656e20616c7265616479206d696e746564000000006044820152606401610441565b6001600160a01b038216600090815260036020526040812080546001929061129c9084906117b8565b909155505060008181526002602052604080822080546001600160a01b0319166001600160a01b03861690811790915590518392907fddf252ad1be2c89b69c2b068fc378daa952ba7f163c4a11628f55a4df523b3ef908290a45050565b82805461130690611827565b90600052602060002090601f016020900481019282611328576000855561136e565b82601f1061134157805160ff191683800117855561136e565b8280016001018555821561136e579182015b8281111561136e578251825591602001919060010190611353565b5061137a9291506113b4565b5090565b50805461138a90611827565b6000825580601f1061139a575050565b601f0160209004906000526020600020908101906105a891905b5b8082111561137a57600081556001016113b5565b600067ffffffffffffffff808411156113e4576113e46118bd565b604051601f8501601f19908116603f0116810190828211818310171561140c5761140c6118bd565b8160405280935085815286868601111561142557600080fd5b858560208301376000602087830101525050509392505050565b80356001600160a01b038116811461145657600080fd5b919050565b60006020828403121561146c578081fd5b610fc98261143f565b60008060408385031215611487578081fd5b6114908361143f565b915061149e6020840161143f565b90509250929050565b6000806000606084860312156114bb578081fd5b6114c48461143f565b92506114d26020850161143f565b9150604084013590509250925092565b600080600080608085870312156114f7578081fd5b6115008561143f565b935061150e6020860161143f565b925060408501359150606085013567ffffffffffffffff811115611530578182fd5b8501601f81018713611540578182fd5b61154f878235602084016113c9565b91505092959194509250565b6000806040838503121561156d578182fd5b6115768361143f565b91506020830135801515811461158a578182fd5b809150509250929050565b600080604083850312156115a7578182fd5b6115b08361143f565b9150602083013567ffffffffffffffff8111156115cb578182fd5b8301601f810185136115db578182fd5b6115ea858235602084016113c9565b9150509250929050565b60008060408385031215611606578182fd5b61160f8361143f565b946020939093013593505050565b60006020828403121561162e578081fd5b8135610fc9816118d3565b60006020828403121561164a578081fd5b8151610fc9816118d3565b600060208284031215611666578081fd5b5035919050565b600081518084526116858160208601602086016117fb565b601f01601f19169290920160200192915050565b600083516116ab8184602088016117fb565b8351908301906116bf8183602088016117fb565b01949350505050565b6001600160a01b03858116825284166020820152604081018390526080606082018190526000906116fb9083018461166d565b9695505050505050565b602081526000610fc9602083018461166d565b60208082526032908201527f4552433732313a207472616e7366657220746f206e6f6e20455243373231526560408201527131b2b4bb32b91034b6b83632b6b2b73a32b960711b606082015260800190565b6020808252602e908201527f4552433732313a2063616c6c6572206973206e6f7420746f6b656e206f776e6560408201526d1c881b9bdc88185c1c1c9bdd995960921b606082015260800190565b600082198211156117cb576117cb611891565b500190565b6000826117df576117df6118a7565b500490565b6000828210156117f6576117f6611891565b500390565b60005b838110156118165781810151838201526020016117fe565b838111156106f55750506000910152565b600181811c9082168061183b57607f821691505b6020821081141561185c57634e487b7160e01b600052602260045260246000fd5b50919050565b600060001982141561187657611876611891565b5060010190565b60008261188c5761188c6118a7565b500690565b634e487b7160e01b600052601160045260246000fd5b634e487b7160e01b600052601260045260246000fd5b634e487b7160e01b600052604160045260246000fd5b6001600160e01b0319811681146105a857600080fdfea264697066735822122092a2674d98aca8cdd3612aa75050bbd8321dfb774285c1da4778e27c8401b64364736f6c63430008040033",
  "linkReferences": {},
  "deployedLinkReferences": {}
}