{
  "_format": "hh-sol-artifact-1",
  "contractName": "TicketBooth",
  "sourceName": "contracts/TicketBooth.sol",
  "abi": [
    {
      "inputs": [
        {
          "internalType": "uint256",
          "name": "_totalTickets",
          "type": "uint256"
        },
        {
          "internalType": "uint256",
          "name": "_ticketPrice",
          "type": "uint256"
        }
      ],
      "stateMutability": "nonpayable",
      "type": "constructor"
    },
    {
      "anonymous": false,
      "inputs": [
        {
          "indexed": true,
          "internalType": "address",
          "name": "owner",
          "type": "address"
        },
        {
          "indexed": true,
          "internalType": "address",
          "name": "approved",
          "type": "address"
        },
        {
          "indexed": true,
          "internalType": "uint256",
          "name": "tokenId",
          "type": "uint256"
        }
      ],
      "name": "Approval",
      "type": "event"
    },
    {
      "anonymous": false,
      "inputs": [
        {
          "indexed": true,
          "internalType": "address",
          "name": "owner",
          "type": "address"
        },
        {
          "indexed": true,
          "internalType": "address",
          "name": "operator",
          "type": "address"
        },
        {
          "indexed": false,
          "internalType": "bool",
          "name": "approved",
          "type": "bool"
        }
      ],
      "name": "ApprovalForAll",
      "type": "event"
    },
    {
      "anonymous": false,
      "inputs": [
        {
          "indexed": true,
          "internalType": "address",
          "name": "previousOwner",
          "type": "address"
        },
        {
          "indexed": true,
          "internalType": "address",
          "name": "newOwner",
          "type": "address"
        }
      ],
      "name": "OwnershipTransferred",
      "type": "event"
    },
    {
      "anonymous": false,
      "inputs": [
        {
          "indexed": true,
          "internalType": "address",
          "name": "from",
          "type": "address"
        },
        {
          "indexed": true,
          "internalType": "address",
          "name": "to",
          "type": "address"
        },
        {
          "indexed": true,
          "internalType": "uint256",
          "name": "tokenId",
          "type": "uint256"
        }
      ],
      "name": "Transfer",
      "type": "event"
    },
    {
      "inputs": [
        {
          "internalType": "address",
          "name": "to",
          "type": "address"
        },
        {
          "internalType": "uint256",
          "name": "tokenId",
          "type": "uint256"
        }
      ],
      "name": "approve",
      "outputs": [],
      "stateMutability": "nonpayable",
      "type": "function"
    },
    {
      "inputs": [],
      "name": "availableTicketCount",
      "outputs": [
        {
          "internalType": "uint256",
          "name": "",
          "type": "uint256"
        }
      ],
      "stateMutability": "view",
      "type": "function"
    },
    {
      "inputs": [],
      "name": "availableTickets",
      "outputs": [
        {
          "internalType": "uint256",
          "name": "",
          "type": "uint256"
        }
      ],
      "stateMutability": "view",
      "type": "function"
    },
    {
      "inputs": [
        {
          "internalType": "address",
          "name": "owner",
          "type": "address"
        }
      ],
      "name": "balanceOf",
      "outputs": [
        {
          "internalType": "uint256",
          "name": "",
          "type": "uint256"
        }
      ],
      "stateMutability": "view",
      "type": "function"
    },
    {
      "inputs": [
        {
          "internalType": "uint256",
          "name": "tokenId",
          "type": "uint256"
        }
      ],
      "name": "getApproved",
      "outputs": [
        {
          "internalType": "address",
          "name": "",
          "type": "address"
        }
      ],
      "stateMutability": "view",
      "type": "function"
    },
    {
      "inputs": [
        {
          "internalType": "address",
          "name": "",
          "type": "address"
        },
        {
          "internalType": "uint256",
          "name": "",
          "type": "uint256"
        }
      ],
      "name": "holderTokenIDs",
      "outputs": [
        {
          "internalType": "uint256",
          "name": "",
          "type": "uint256"
        }
      ],
      "stateMutability": "view",
      "type": "function"
    },
    {
      "inputs": [
        {
          "internalType": "address",
          "name": "owner",
          "type": "address"
        },
        {
          "internalType": "address",
          "name": "operator",
          "type": "address"
        }
      ],
      "name": "isApprovedForAll",
      "outputs": [
        {
          "internalType": "bool",
          "name": "",
          "type": "bool"
        }
      ],
      "stateMutability": "view",
      "type": "function"
    },
    {
      "inputs": [
        {
          "internalType": "string",
          "name": "_tokenURI",
          "type": "string"
        }
      ],
      "name": "mint",
      "outputs": [],
      "stateMutability": "payable",
      "type": "function"
    },
    {
      "inputs": [],
      "name": "name",
      "outputs": [
        {
          "internalType": "string",
          "name": "",
          "type": "string"
        }
      ],
      "stateMutability": "view",
      "type": "function"
    },
    {
      "inputs": [],
      "name": "owner",
      "outputs": [
        {
          "internalType": "address",
          "name": "",
          "type": "address"
        }
      ],
      "stateMutability": "view",
      "type": "function"
    },
    {
      "inputs": [
        {
          "internalType": "uint256",
          "name": "tokenId",
          "type": "uint256"
        }
      ],
      "name": "ownerOf",
      "outputs": [
        {
          "internalType": "address",
          "name": "",
          "type": "address"
        }
      ],
      "stateMutability": "view",
      "type": "function"
    },
    {
      "inputs": [],
      "name": "renounceOwnership",
      "outputs": [],
      "stateMutability": "nonpayable",
      "type": "function"
    },
    {
      "inputs": [
        {
          "internalType": "address",
          "name": "from",
          "type": "address"
        },
        {
          "internalType": "address",
          "name": "to",
          "type": "address"
        },
        {
          "internalType": "uint256",
          "name": "tokenId",
          "type": "uint256"
        }
      ],
      "name": "safeTransferFrom",
      "outputs": [],
      "stateMutability": "nonpayable",
      "type": "function"
    },
    {
      "inputs": [
        {
          "internalType": "address",
          "name": "from",
          "type": "address"
        },
        {
          "internalType": "address",
          "name": "to",
          "type": "address"
        },
        {
          "internalType": "uint256",
          "name": "tokenId",
          "type": "uint256"
        },
        {
          "internalType": "bytes",
          "name": "data",
          "type": "bytes"
        }
      ],
      "name": "safeTransferFrom",
      "outputs": [],
      "stateMutability": "nonpayable",
      "type": "function"
    },
    {
      "inputs": [
        {
          "internalType": "address",
          "name": "operator",
          "type": "address"
        },
        {
          "internalType": "bool",
          "name": "approved",
          "type": "bool"
        }
      ],
      "name": "setApprovalForAll",
      "outputs": [],
      "stateMutability": "nonpayable",
      "type": "function"
    },
    {
      "inputs": [
        {
          "internalType": "bytes4",
          "name": "interfaceId",
          "type": "bytes4"
        }
      ],
      "name": "supportsInterface",
      "outputs": [
        {
          "internalType": "bool",
          "name": "",
          "type": "bool"
        }
      ],
      "stateMutability": "view",
      "type": "function"
    },
    {
      "inputs": [],
      "name": "symbol",
      "outputs": [
        {
          "internalType": "string",
          "name": "",
          "type": "string"
        }
      ],
      "stateMutability": "view",
      "type": "function"
    },
    {
      "inputs": [],
      "name": "ticketPrice",
      "outputs": [
        {
          "internalType": "uint256",
          "name": "",
          "type": "uint256"
        }
      ],
      "stateMutability": "view",
      "type": "function"
    },
    {
      "inputs": [],
      "name": "tokenURI",
      "outputs": [
        {
          "internalType": "string",
          "name": "",
          "type": "string"
        }
      ],
      "stateMutability": "view",
      "type": "function"
    },
    {
      "inputs": [
        {
          "internalType": "uint256",
          "name": "tokenId",
          "type": "uint256"
        }
      ],
      "name": "tokenURI",
      "outputs": [
        {
          "internalType": "string",
          "name": "",
          "type": "string"
        }
      ],
      "stateMutability": "view",
      "type": "function"
    },
    {
      "inputs": [],
      "name": "totalTicketCount",
      "outputs": [
        {
          "internalType": "uint256",
          "name": "",
          "type": "uint256"
        }
      ],
      "stateMutability": "view",
      "type": "function"
    },
    {
      "inputs": [],
      "name": "totalTickets",
      "outputs": [
        {
          "internalType": "uint256",
          "name": "",
          "type": "uint256"
        }
      ],
      "stateMutability": "view",
      "type": "function"
    },
    {
      "inputs": [
        {
          "internalType": "address",
          "name": "from",
          "type": "address"
        },
        {
          "internalType": "address",
          "name": "to",
          "type": "address"
        },
        {
          "internalType": "uint256",
          "name": "tokenId",
          "type": "uint256"
        }
      ],
      "name": "transferFrom",
      "outputs": [],
      "stateMutability": "nonpayable",
      "type": "function"
    },
    {
      "inputs": [
        {
          "internalType": "address",
          "name": "newOwner",
          "type": "address"
        }
      ],
      "name": "transferOwnership",
      "outputs": [],
      "stateMutability": "nonpayable",
      "type": "function"
    }
  ],
  "bytecode": "0x60806040523480156200001157600080fd5b5060405162001cc238038062001cc28339810160408190526200003491620001e8565b604080518082018252600d81526c1493115d995b9d151a58dad95d609a1b6020808301918252835180850190945260048452631493115560e21b908401528151919291620000859160009162000142565b5080516200009b90600190602084019062000142565b505050620000b8620000b2620000e360201b60201c565b620000e7565b620000cf60086200013960201b62000b311760201c565b6009829055600a91909155600b5562000249565b3390565b600780546001600160a01b038381166001600160a01b0319831681179093556040519116919082907f8be0079c531659141344cd1fd0a4f28419497f9722a3daafe3b4186f6b6457e090600090a35050565b80546001019055565b82805462000150906200020c565b90600052602060002090601f016020900481019282620001745760008555620001bf565b82601f106200018f57805160ff1916838001178555620001bf565b82800160010185558215620001bf579182015b82811115620001bf578251825591602001919060010190620001a2565b50620001cd929150620001d1565b5090565b5b80821115620001cd5760008155600101620001d2565b60008060408385031215620001fb578182fd5b505080516020909101519092909150565b600181811c908216806200022157607f821691505b602082108114156200024357634e487b7160e01b600052602260045260246000fd5b50919050565b611a6980620002596000396000f3fe60806040526004361061014b5760003560e01c806370a08231116100b6578063b88d4fde1161006f578063b88d4fde14610382578063c87b56dd146103a2578063d85d3d27146103c2578063dd11247e146103d5578063e985e9c5146103eb578063f2fde38b1461043457600080fd5b806370a08231146102da578063715018a6146102fa57806382ac0bb81461030f5780638da5cb5b1461032f57806395d89b411461034d578063a22cb4651461036257600080fd5b806323b872dd1161010857806323b872dd1461023a5780633c130d901461025a5780633cfa7e011461026f5780633d721ecd1461028557806342842e0e1461029a5780636352211e146102ba57600080fd5b806301ffc9a71461015057806306fdde0314610185578063081812fc146101a7578063095ea7b3146101df5780631209b1f61461020157806314558fab14610225575b600080fd5b34801561015c57600080fd5b5061017061016b366004611721565b610454565b60405190151581526020015b60405180910390f35b34801561019157600080fd5b5061019a6104a6565b60405161017c919061184f565b3480156101b357600080fd5b506101c76101c236600461179f565b610538565b6040516001600160a01b03909116815260200161017c565b3480156101eb57600080fd5b506101ff6101fa3660046116f8565b61055f565b005b34801561020d57600080fd5b50610217600b5481565b60405190815260200161017c565b34801561023157600080fd5b50600954610217565b34801561024657600080fd5b506101ff61025536600461160a565b61067a565b34801561026657600080fd5b5061019a6106ab565b34801561027b57600080fd5b50610217600a5481565b34801561029157600080fd5b50600a54610217565b3480156102a657600080fd5b506101ff6102b536600461160a565b610739565b3480156102c657600080fd5b506101c76102d536600461179f565b610754565b3480156102e657600080fd5b506102176102f53660046115be565b6107b4565b34801561030657600080fd5b506101ff61083a565b34801561031b57600080fd5b5061021761032a3660046116f8565b61084e565b34801561033b57600080fd5b506007546001600160a01b03166101c7565b34801561035957600080fd5b5061019a61087f565b34801561036e57600080fd5b506101ff61037d3660046116be565b61088e565b34801561038e57600080fd5b506101ff61039d366004611645565b61089d565b3480156103ae57600080fd5b5061019a6103bd36600461179f565b6108d5565b6101ff6103d0366004611759565b6109e6565b3480156103e157600080fd5b5061021760095481565b3480156103f757600080fd5b506101706104063660046115d8565b6001600160a01b03918216600090815260056020908152604080832093909416825291909152205460ff1690565b34801561044057600080fd5b506101ff61044f3660046115be565b610ab8565b60006001600160e01b031982166380ac58cd60e01b148061048557506001600160e01b03198216635b5e139f60e01b145b806104a057506301ffc9a760e01b6001600160e01b03198316145b92915050565b6060600080546104b590611971565b80601f01602080910402602001604051908101604052809291908181526020018280546104e190611971565b801561052e5780601f106105035761010080835404028352916020019161052e565b820191906000526020600020905b81548152906001019060200180831161051157829003601f168201915b5050505050905090565b600061054382610b3a565b506000908152600460205260409020546001600160a01b031690565b600061056a82610754565b9050806001600160a01b0316836001600160a01b031614156105dd5760405162461bcd60e51b815260206004820152602160248201527f4552433732313a20617070726f76616c20746f2063757272656e74206f776e656044820152603960f91b60648201526084015b60405180910390fd5b336001600160a01b03821614806105f957506105f98133610406565b61066b5760405162461bcd60e51b815260206004820152603e60248201527f4552433732313a20617070726f76652063616c6c6572206973206e6f7420746f60448201527f6b656e206f776e6572206e6f7220617070726f76656420666f7220616c6c000060648201526084016105d4565b6106758383610b99565b505050565b6106843382610c07565b6106a05760405162461bcd60e51b81526004016105d4906118b4565b610675838383610c85565b600c80546106b890611971565b80601f01602080910402602001604051908101604052809291908181526020018280546106e490611971565b80156107315780601f1061070657610100808354040283529160200191610731565b820191906000526020600020905b81548152906001019060200180831161071457829003601f168201915b505050505081565b6106758383836040518060200160405280600081525061089d565b6000818152600260205260408120546001600160a01b0316806104a05760405162461bcd60e51b8152602060048201526018602482015277115490cdcc8c4e881a5b9d985b1a59081d1bdad95b88125160421b60448201526064016105d4565b60006001600160a01b03821661081e5760405162461bcd60e51b815260206004820152602960248201527f4552433732313a2061646472657373207a65726f206973206e6f7420612076616044820152683634b21037bbb732b960b91b60648201526084016105d4565b506001600160a01b031660009081526003602052604090205490565b610842610e21565b61084c6000610e7b565b565b600d602052816000526040600020818154811061086a57600080fd5b90600052602060002001600091509150505481565b6060600180546104b590611971565b610899338383610ecd565b5050565b6108a73383610c07565b6108c35760405162461bcd60e51b81526004016105d4906118b4565b6108cf84848484610f9c565b50505050565b60606108e082610b3a565b600082815260066020526040812080546108f990611971565b80601f016020809104026020016040519081016040528092919081815260200182805461092590611971565b80156109725780601f1061094757610100808354040283529160200191610972565b820191906000526020600020905b81548152906001019060200180831161095557829003601f168201915b50505050509050600061099060408051602081019091526000815290565b90508051600014156109a3575092915050565b8151156109d55780826040516020016109bd9291906117e3565b60405160208183030381529060405292505050919050565b6109de84610fcf565b949350505050565b6000600a5411610a2d5760405162461bcd60e51b81526020600482015260126024820152714e6f7420656e6f756768207469636b65747360701b60448201526064016105d4565b600b54341015610a715760405162461bcd60e51b815260206004820152600f60248201526e4e6f7420656e6f756768204554482160881b60448201526064016105d4565b610a8333610a7e60085490565b611043565b610a95610a8f60085490565b8261105d565b610aa3600880546001019055565b6001600a54610ab2919061192e565b600a5550565b610ac0610e21565b6001600160a01b038116610b255760405162461bcd60e51b815260206004820152602660248201527f4f776e61626c653a206e6577206f776e657220697320746865207a65726f206160448201526564647265737360d01b60648201526084016105d4565b610b2e81610e7b565b50565b80546001019055565b6000818152600260205260409020546001600160a01b0316610b2e5760405162461bcd60e51b8152602060048201526018602482015277115490cdcc8c4e881a5b9d985b1a59081d1bdad95b88125160421b60448201526064016105d4565b600081815260046020526040902080546001600160a01b0319166001600160a01b0384169081179091558190610bce82610754565b6001600160a01b03167f8c5be1e5ebec7d5bd14f71427d1e84f3dd0314c0f7b2291e5b200ac8c7c3b92560405160405180910390a45050565b600080610c1383610754565b9050806001600160a01b0316846001600160a01b03161480610c5a57506001600160a01b0380821660009081526005602090815260408083209388168352929052205460ff165b806109de5750836001600160a01b0316610c7384610538565b6001600160a01b031614949350505050565b826001600160a01b0316610c9882610754565b6001600160a01b031614610cfc5760405162461bcd60e51b815260206004820152602560248201527f4552433732313a207472616e736665722066726f6d20696e636f72726563742060448201526437bbb732b960d91b60648201526084016105d4565b6001600160a01b038216610d5e5760405162461bcd60e51b8152602060048201526024808201527f4552433732313a207472616e7366657220746f20746865207a65726f206164646044820152637265737360e01b60648201526084016105d4565b610d69600082610b99565b6001600160a01b0383166000908152600360205260408120805460019290610d9290849061192e565b90915550506001600160a01b0382166000908152600360205260408120805460019290610dc0908490611902565b909155505060008181526002602052604080822080546001600160a01b0319166001600160a01b0386811691821790925591518493918716917fddf252ad1be2c89b69c2b068fc378daa952ba7f163c4a11628f55a4df523b3ef91a4505050565b6007546001600160a01b0316331461084c5760405162461bcd60e51b815260206004820181905260248201527f4f776e61626c653a2063616c6c6572206973206e6f7420746865206f776e657260448201526064016105d4565b600780546001600160a01b038381166001600160a01b0319831681179093556040519116919082907f8be0079c531659141344cd1fd0a4f28419497f9722a3daafe3b4186f6b6457e090600090a35050565b816001600160a01b0316836001600160a01b03161415610f2f5760405162461bcd60e51b815260206004820152601960248201527f4552433732313a20617070726f766520746f2063616c6c65720000000000000060448201526064016105d4565b6001600160a01b03838116600081815260056020908152604080832094871680845294825291829020805460ff191686151590811790915591519182527f17307eab39ab6107e8899845ad3d59bd9653f200f220920489ca2b5937696c31910160405180910390a3505050565b610fa7848484610c85565b610fb3848484846110f7565b6108cf5760405162461bcd60e51b81526004016105d490611862565b6060610fda82610b3a565b6000610ff160408051602081019091526000815290565b90506000815111611011576040518060200160405280600081525061103c565b8061101b84611204565b60405160200161102c9291906117e3565b6040516020818303038152906040525b9392505050565b61089982826040518060200160405280600081525061131e565b6000828152600260205260409020546001600160a01b03166110d85760405162461bcd60e51b815260206004820152602e60248201527f45524337323155524953746f726167653a2055524920736574206f66206e6f6e60448201526d32bc34b9ba32b73a103a37b5b2b760911b60648201526084016105d4565b6000828152600660209081526040909120825161067592840190611493565b60006001600160a01b0384163b156111f957604051630a85bd0160e11b81526001600160a01b0385169063150b7a029061113b903390899088908890600401611812565b602060405180830381600087803b15801561115557600080fd5b505af1925050508015611185575060408051601f3d908101601f191682019092526111829181019061173d565b60015b6111df573d8080156111b3576040519150601f19603f3d011682016040523d82523d6000602084013e6111b8565b606091505b5080516111d75760405162461bcd60e51b81526004016105d490611862565b805181602001fd5b6001600160e01b031916630a85bd0160e11b1490506109de565b506001949350505050565b6060816112285750506040805180820190915260018152600360fc1b602082015290565b8160005b8115611252578061123c816119ac565b915061124b9050600a8361191a565b915061122c565b60008167ffffffffffffffff81111561127b57634e487b7160e01b600052604160045260246000fd5b6040519080825280601f01601f1916602001820160405280156112a5576020820181803683370190505b5090505b84156109de576112ba60018361192e565b91506112c7600a866119c7565b6112d2906030611902565b60f81b8183815181106112f557634e487b7160e01b600052603260045260246000fd5b60200101906001600160f81b031916908160001a905350611317600a8661191a565b94506112a9565b6113288383611351565b61133560008484846110f7565b6106755760405162461bcd60e51b81526004016105d490611862565b6001600160a01b0382166113a75760405162461bcd60e51b815260206004820181905260248201527f4552433732313a206d696e7420746f20746865207a65726f206164647265737360448201526064016105d4565b6000818152600260205260409020546001600160a01b03161561140c5760405162461bcd60e51b815260206004820152601c60248201527f4552433732313a20746f6b656e20616c7265616479206d696e7465640000000060448201526064016105d4565b6001600160a01b0382166000908152600360205260408120805460019290611435908490611902565b909155505060008181526002602052604080822080546001600160a01b0319166001600160a01b03861690811790915590518392907fddf252ad1be2c89b69c2b068fc378daa952ba7f163c4a11628f55a4df523b3ef908290a45050565b82805461149f90611971565b90600052602060002090601f0160209004810192826114c15760008555611507565b82601f106114da57805160ff1916838001178555611507565b82800160010185558215611507579182015b828111156115075782518255916020019190600101906114ec565b50611513929150611517565b5090565b5b808211156115135760008155600101611518565b600067ffffffffffffffff8084111561154757611547611a07565b604051601f8501601f19908116603f0116810190828211818310171561156f5761156f611a07565b8160405280935085815286868601111561158857600080fd5b858560208301376000602087830101525050509392505050565b80356001600160a01b03811681146115b957600080fd5b919050565b6000602082840312156115cf578081fd5b61103c826115a2565b600080604083850312156115ea578081fd5b6115f3836115a2565b9150611601602084016115a2565b90509250929050565b60008060006060848603121561161e578081fd5b611627846115a2565b9250611635602085016115a2565b9150604084013590509250925092565b6000806000806080858703121561165a578081fd5b611663856115a2565b9350611671602086016115a2565b925060408501359150606085013567ffffffffffffffff811115611693578182fd5b8501601f810187136116a3578182fd5b6116b28782356020840161152c565b91505092959194509250565b600080604083850312156116d0578182fd5b6116d9836115a2565b9150602083013580151581146116ed578182fd5b809150509250929050565b6000806040838503121561170a578182fd5b611713836115a2565b946020939093013593505050565b600060208284031215611732578081fd5b813561103c81611a1d565b60006020828403121561174e578081fd5b815161103c81611a1d565b60006020828403121561176a578081fd5b813567ffffffffffffffff811115611780578182fd5b8201601f81018413611790578182fd5b6109de8482356020840161152c565b6000602082840312156117b0578081fd5b5035919050565b600081518084526117cf816020860160208601611945565b601f01601f19169290920160200192915050565b600083516117f5818460208801611945565b835190830190611809818360208801611945565b01949350505050565b6001600160a01b0385811682528416602082015260408101839052608060608201819052600090611845908301846117b7565b9695505050505050565b60208152600061103c60208301846117b7565b60208082526032908201527f4552433732313a207472616e7366657220746f206e6f6e20455243373231526560408201527131b2b4bb32b91034b6b83632b6b2b73a32b960711b606082015260800190565b6020808252602e908201527f4552433732313a2063616c6c6572206973206e6f7420746f6b656e206f776e6560408201526d1c881b9bdc88185c1c1c9bdd995960921b606082015260800190565b60008219821115611915576119156119db565b500190565b600082611929576119296119f1565b500490565b600082821015611940576119406119db565b500390565b60005b83811015611960578181015183820152602001611948565b838111156108cf5750506000910152565b600181811c9082168061198557607f821691505b602082108114156119a657634e487b7160e01b600052602260045260246000fd5b50919050565b60006000198214156119c0576119c06119db565b5060010190565b6000826119d6576119d66119f1565b500690565b634e487b7160e01b600052601160045260246000fd5b634e487b7160e01b600052601260045260246000fd5b634e487b7160e01b600052604160045260246000fd5b6001600160e01b031981168114610b2e57600080fdfea264697066735822122095e18484decae23976eaabce44a47a3443eb86582777fec1cae571eda5822b7864736f6c63430008040033",
  "linkReferences": {},
  "deployedLinkReferences": {}
}