{
  "_format": "hh-sol-artifact-1",
  "contractName": "GreetingCard",
  "sourceName": "contracts/GreetingCard.sol",
  "abi": [
    {
      "inputs": [],
      "stateMutability": "nonpayable",
      "type": "constructor"
    },
    {
      "anonymous": false,
      "inputs": [
        {
          "indexed": true,
          "internalType": "address",
          "name": "owner",
          "type": "address"
        },
        {
          "indexed": true,
          "internalType": "address",
          "name": "approved",
          "type": "address"
        },
        {
          "indexed": true,
          "internalType": "uint256",
          "name": "tokenId",
          "type": "uint256"
        }
      ],
      "name": "Approval",
      "type": "event"
    },
    {
      "anonymous": false,
      "inputs": [
        {
          "indexed": true,
          "internalType": "address",
          "name": "owner",
          "type": "address"
        },
        {
          "indexed": true,
          "internalType": "address",
          "name": "operator",
          "type": "address"
        },
        {
          "indexed": false,
          "internalType": "bool",
          "name": "approved",
          "type": "bool"
        }
      ],
      "name": "ApprovalForAll",
      "type": "event"
    },
    {
      "anonymous": false,
      "inputs": [
        {
          "indexed": true,
          "internalType": "address",
          "name": "previousOwner",
          "type": "address"
        },
        {
          "indexed": true,
          "internalType": "address",
          "name": "newOwner",
          "type": "address"
        }
      ],
      "name": "OwnershipTransferred",
      "type": "event"
    },
    {
      "anonymous": false,
      "inputs": [
        {
          "indexed": false,
          "internalType": "uint256",
          "name": "",
          "type": "uint256"
        }
      ],
      "name": "Return",
      "type": "event"
    },
    {
      "anonymous": false,
      "inputs": [
        {
          "indexed": true,
          "internalType": "address",
          "name": "from",
          "type": "address"
        },
        {
          "indexed": true,
          "internalType": "address",
          "name": "to",
          "type": "address"
        },
        {
          "indexed": true,
          "internalType": "uint256",
          "name": "tokenId",
          "type": "uint256"
        }
      ],
      "name": "Transfer",
      "type": "event"
    },
    {
      "inputs": [
        {
          "internalType": "address",
          "name": "to",
          "type": "address"
        },
        {
          "internalType": "uint256",
          "name": "tokenId",
          "type": "uint256"
        }
      ],
      "name": "approve",
      "outputs": [],
      "stateMutability": "nonpayable",
      "type": "function"
    },
    {
      "inputs": [
        {
          "internalType": "address",
          "name": "owner",
          "type": "address"
        }
      ],
      "name": "balanceOf",
      "outputs": [
        {
          "internalType": "uint256",
          "name": "",
          "type": "uint256"
        }
      ],
      "stateMutability": "view",
      "type": "function"
    },
    {
      "inputs": [
        {
          "internalType": "uint256",
          "name": "tokenId",
          "type": "uint256"
        }
      ],
      "name": "confirmOwnership",
      "outputs": [
        {
          "internalType": "bool",
          "name": "",
          "type": "bool"
        }
      ],
      "stateMutability": "view",
      "type": "function"
    },
    {
      "inputs": [],
      "name": "currentCount",
      "outputs": [
        {
          "internalType": "uint256",
          "name": "",
          "type": "uint256"
        }
      ],
      "stateMutability": "view",
      "type": "function"
    },
    {
      "inputs": [
        {
          "internalType": "uint256",
          "name": "tokenId",
          "type": "uint256"
        }
      ],
      "name": "exists",
      "outputs": [
        {
          "internalType": "bool",
          "name": "",
          "type": "bool"
        }
      ],
      "stateMutability": "view",
      "type": "function"
    },
    {
      "inputs": [
        {
          "internalType": "uint256",
          "name": "tokenId",
          "type": "uint256"
        }
      ],
      "name": "getApproved",
      "outputs": [
        {
          "internalType": "address",
          "name": "",
          "type": "address"
        }
      ],
      "stateMutability": "view",
      "type": "function"
    },
    {
      "inputs": [
        {
          "internalType": "address",
          "name": "owner",
          "type": "address"
        },
        {
          "internalType": "address",
          "name": "operator",
          "type": "address"
        }
      ],
      "name": "isApprovedForAll",
      "outputs": [
        {
          "internalType": "bool",
          "name": "",
          "type": "bool"
        }
      ],
      "stateMutability": "view",
      "type": "function"
    },
    {
      "inputs": [],
      "name": "name",
      "outputs": [
        {
          "internalType": "string",
          "name": "",
          "type": "string"
        }
      ],
      "stateMutability": "view",
      "type": "function"
    },
    {
      "inputs": [],
      "name": "owner",
      "outputs": [
        {
          "internalType": "address",
          "name": "",
          "type": "address"
        }
      ],
      "stateMutability": "view",
      "type": "function"
    },
    {
      "inputs": [
        {
          "internalType": "uint256",
          "name": "tokenId",
          "type": "uint256"
        }
      ],
      "name": "ownerOf",
      "outputs": [
        {
          "internalType": "address",
          "name": "",
          "type": "address"
        }
      ],
      "stateMutability": "view",
      "type": "function"
    },
    {
      "inputs": [],
      "name": "renounceOwnership",
      "outputs": [],
      "stateMutability": "nonpayable",
      "type": "function"
    },
    {
      "inputs": [
        {
          "internalType": "address",
          "name": "to",
          "type": "address"
        },
        {
          "internalType": "string",
          "name": "uri",
          "type": "string"
        }
      ],
      "name": "safeMint",
      "outputs": [
        {
          "internalType": "uint256",
          "name": "",
          "type": "uint256"
        }
      ],
      "stateMutability": "payable",
      "type": "function"
    },
    {
      "inputs": [
        {
          "internalType": "address",
          "name": "from",
          "type": "address"
        },
        {
          "internalType": "address",
          "name": "to",
          "type": "address"
        },
        {
          "internalType": "uint256",
          "name": "tokenId",
          "type": "uint256"
        }
      ],
      "name": "safeTransferFrom",
      "outputs": [],
      "stateMutability": "nonpayable",
      "type": "function"
    },
    {
      "inputs": [
        {
          "internalType": "address",
          "name": "from",
          "type": "address"
        },
        {
          "internalType": "address",
          "name": "to",
          "type": "address"
        },
        {
          "internalType": "uint256",
          "name": "tokenId",
          "type": "uint256"
        },
        {
          "internalType": "bytes",
          "name": "_data",
          "type": "bytes"
        }
      ],
      "name": "safeTransferFrom",
      "outputs": [],
      "stateMutability": "nonpayable",
      "type": "function"
    },
    {
      "inputs": [
        {
          "internalType": "address",
          "name": "operator",
          "type": "address"
        },
        {
          "internalType": "bool",
          "name": "approved",
          "type": "bool"
        }
      ],
      "name": "setApprovalForAll",
      "outputs": [],
      "stateMutability": "nonpayable",
      "type": "function"
    },
    {
      "inputs": [
        {
          "internalType": "bytes4",
          "name": "interfaceId",
          "type": "bytes4"
        }
      ],
      "name": "supportsInterface",
      "outputs": [
        {
          "internalType": "bool",
          "name": "",
          "type": "bool"
        }
      ],
      "stateMutability": "view",
      "type": "function"
    },
    {
      "inputs": [],
      "name": "symbol",
      "outputs": [
        {
          "internalType": "string",
          "name": "",
          "type": "string"
        }
      ],
      "stateMutability": "view",
      "type": "function"
    },
    {
      "inputs": [
        {
          "internalType": "uint256",
          "name": "tokenId",
          "type": "uint256"
        }
      ],
      "name": "tokenURI",
      "outputs": [
        {
          "internalType": "string",
          "name": "",
          "type": "string"
        }
      ],
      "stateMutability": "view",
      "type": "function"
    },
    {
      "inputs": [
        {
          "internalType": "address",
          "name": "from",
          "type": "address"
        },
        {
          "internalType": "address",
          "name": "to",
          "type": "address"
        },
        {
          "internalType": "uint256",
          "name": "tokenId",
          "type": "uint256"
        }
      ],
      "name": "transferFrom",
      "outputs": [],
      "stateMutability": "nonpayable",
      "type": "function"
    },
    {
      "inputs": [
        {
          "internalType": "address",
          "name": "newOwner",
          "type": "address"
        }
      ],
      "name": "transferOwnership",
      "outputs": [],
      "stateMutability": "nonpayable",
      "type": "function"
    }
  ],
  "bytecode": "0x60806040523480156200001157600080fd5b506040518060400160405280600e81526020017f524c4772656574696e67436172640000000000000000000000000000000000008152506040518060400160405280600481526020017f524c474300000000000000000000000000000000000000000000000000000000815250816000908051906020019062000096929190620001a6565b508060019080519060200190620000af929190620001a6565b505050620000d2620000c6620000d860201b60201c565b620000e060201b60201c565b620002bb565b600033905090565b6000600760009054906101000a900473ffffffffffffffffffffffffffffffffffffffff16905081600760006101000a81548173ffffffffffffffffffffffffffffffffffffffff021916908373ffffffffffffffffffffffffffffffffffffffff1602179055508173ffffffffffffffffffffffffffffffffffffffff168173ffffffffffffffffffffffffffffffffffffffff167f8be0079c531659141344cd1fd0a4f28419497f9722a3daafe3b4186f6b6457e060405160405180910390a35050565b828054620001b49062000256565b90600052602060002090601f016020900481019282620001d8576000855562000224565b82601f10620001f357805160ff191683800117855562000224565b8280016001018555821562000224579182015b828111156200022357825182559160200191906001019062000206565b5b50905062000233919062000237565b5090565b5b808211156200025257600081600090555060010162000238565b5090565b600060028204905060018216806200026f57607f821691505b602082108114156200028657620002856200028c565b5b50919050565b7f4e487b7100000000000000000000000000000000000000000000000000000000600052602260045260246000fd5b61321a80620002cb6000396000f3fe60806040526004361061011f5760003560e01c8063715018a6116100a0578063c732d20111610064578063c732d201146103f7578063c87b56dd14610422578063d204c45e1461045f578063e985e9c51461048f578063f2fde38b146104cc5761011f565b8063715018a6146103385780638da5cb5b1461034f57806395d89b411461037a578063a22cb465146103a5578063b88d4fde146103ce5761011f565b8063290fbb03116100e7578063290fbb031461021b57806342842e0e146102585780634f558e79146102815780636352211e146102be57806370a08231146102fb5761011f565b806301ffc9a71461012457806306fdde0314610161578063081812fc1461018c578063095ea7b3146101c957806323b872dd146101f2575b600080fd5b34801561013057600080fd5b5061014b6004803603810190610146919061217a565b6104f5565b60405161015891906125d2565b60405180910390f35b34801561016d57600080fd5b506101766105d7565b60405161018391906125ed565b60405180910390f35b34801561019857600080fd5b506101b360048036038101906101ae91906121d4565b610669565b6040516101c0919061256b565b60405180910390f35b3480156101d557600080fd5b506101f060048036038101906101eb919061213a565b6106ee565b005b3480156101fe57600080fd5b5061021960048036038101906102149190611fc8565b610806565b005b34801561022757600080fd5b50610242600480360381019061023d91906121d4565b610866565b60405161024f91906125d2565b60405180910390f35b34801561026457600080fd5b5061027f600480360381019061027a9190611fc8565b6108a6565b005b34801561028d57600080fd5b506102a860048036038101906102a391906121d4565b6108c6565b6040516102b591906125d2565b60405180910390f35b3480156102ca57600080fd5b506102e560048036038101906102e091906121d4565b6108d8565b6040516102f2919061256b565b60405180910390f35b34801561030757600080fd5b50610322600480360381019061031d9190611f5b565b61098a565b60405161032f919061284f565b60405180910390f35b34801561034457600080fd5b5061034d610a42565b005b34801561035b57600080fd5b50610364610aca565b604051610371919061256b565b60405180910390f35b34801561038657600080fd5b5061038f610af4565b60405161039c91906125ed565b60405180910390f35b3480156103b157600080fd5b506103cc60048036038101906103c7919061209e565b610b86565b005b3480156103da57600080fd5b506103f560048036038101906103f0919061201b565b610b9c565b005b34801561040357600080fd5b5061040c610bfe565b604051610419919061284f565b60405180910390f35b34801561042e57600080fd5b50610449600480360381019061044491906121d4565b610c0f565b60405161045691906125ed565b60405180910390f35b610479600480360381019061047491906120de565b610c21565b604051610486919061284f565b60405180910390f35b34801561049b57600080fd5b506104b660048036038101906104b19190611f88565b610c58565b6040516104c391906125d2565b60405180910390f35b3480156104d857600080fd5b506104f360048036038101906104ee9190611f5b565b610cec565b005b60007f80ac58cd000000000000000000000000000000000000000000000000000000007bffffffffffffffffffffffffffffffffffffffffffffffffffffffff1916827bffffffffffffffffffffffffffffffffffffffffffffffffffffffff191614806105c057507f5b5e139f000000000000000000000000000000000000000000000000000000007bffffffffffffffffffffffffffffffffffffffffffffffffffffffff1916827bffffffffffffffffffffffffffffffffffffffffffffffffffffffff1916145b806105d057506105cf82610de4565b5b9050919050565b6060600080546105e690612aa5565b80601f016020809104026020016040519081016040528092919081815260200182805461061290612aa5565b801561065f5780601f106106345761010080835404028352916020019161065f565b820191906000526020600020905b81548152906001019060200180831161064257829003601f168201915b5050505050905090565b600061067482610e4e565b6106b3576040517f08c379a00000000000000000000000000000000000000000000000000000000081526004016106aa906127af565b60405180910390fd5b6004600083815260200190815260200160002060009054906101000a900473ffffffffffffffffffffffffffffffffffffffff169050919050565b60006106f9826108d8565b90508073ffffffffffffffffffffffffffffffffffffffff168373ffffffffffffffffffffffffffffffffffffffff16141561076a576040517f08c379a00000000000000000000000000000000000000000000000000000000081526004016107619061280f565b60405180910390fd5b8073ffffffffffffffffffffffffffffffffffffffff16610789610eba565b73ffffffffffffffffffffffffffffffffffffffff1614806107b857506107b7816107b2610eba565b610c58565b5b6107f7576040517f08c379a00000000000000000000000000000000000000000000000000000000081526004016107ee906126ef565b60405180910390fd5b6108018383610ec2565b505050565b610817610811610eba565b82610f7b565b610856576040517f08c379a000000000000000000000000000000000000000000000000000000000815260040161084d9061282f565b60405180910390fd5b610861838383611059565b505050565b60003373ffffffffffffffffffffffffffffffffffffffff16610888836108d8565b73ffffffffffffffffffffffffffffffffffffffff16149050919050565b6108c183838360405180602001604052806000815250610b9c565b505050565b60006108d182610e4e565b9050919050565b6000806002600084815260200190815260200160002060009054906101000a900473ffffffffffffffffffffffffffffffffffffffff169050600073ffffffffffffffffffffffffffffffffffffffff168173ffffffffffffffffffffffffffffffffffffffff161415610981576040517f08c379a00000000000000000000000000000000000000000000000000000000081526004016109789061272f565b60405180910390fd5b80915050919050565b60008073ffffffffffffffffffffffffffffffffffffffff168273ffffffffffffffffffffffffffffffffffffffff1614156109fb576040517f08c379a00000000000000000000000000000000000000000000000000000000081526004016109f29061270f565b60405180910390fd5b600360008373ffffffffffffffffffffffffffffffffffffffff1673ffffffffffffffffffffffffffffffffffffffff168152602001908152602001600020549050919050565b610a4a610eba565b73ffffffffffffffffffffffffffffffffffffffff16610a68610aca565b73ffffffffffffffffffffffffffffffffffffffff1614610abe576040517f08c379a0000000000000000000000000000000000000000000000000000000008152600401610ab5906127cf565b60405180910390fd5b610ac860006112c0565b565b6000600760009054906101000a900473ffffffffffffffffffffffffffffffffffffffff16905090565b606060018054610b0390612aa5565b80601f0160208091040260200160405190810160405280929190818152602001828054610b2f90612aa5565b8015610b7c5780601f10610b5157610100808354040283529160200191610b7c565b820191906000526020600020905b815481529060010190602001808311610b5f57829003601f168201915b5050505050905090565b610b98610b91610eba565b8383611386565b5050565b610bad610ba7610eba565b83610f7b565b610bec576040517f08c379a0000000000000000000000000000000000000000000000000000000008152600401610be39061282f565b60405180910390fd5b610bf8848484846114f3565b50505050565b6000610c0a600861154f565b905090565b6060610c1a8261155d565b9050919050565b600080610c2e600861154f565b9050610c3a60086116af565b610c4484826116c5565b610c4e81846116e3565b8091505092915050565b6000600560008473ffffffffffffffffffffffffffffffffffffffff1673ffffffffffffffffffffffffffffffffffffffff16815260200190815260200160002060008373ffffffffffffffffffffffffffffffffffffffff1673ffffffffffffffffffffffffffffffffffffffff16815260200190815260200160002060009054906101000a900460ff16905092915050565b610cf4610eba565b73ffffffffffffffffffffffffffffffffffffffff16610d12610aca565b73ffffffffffffffffffffffffffffffffffffffff1614610d68576040517f08c379a0000000000000000000000000000000000000000000000000000000008152600401610d5f906127cf565b60405180910390fd5b600073ffffffffffffffffffffffffffffffffffffffff168173ffffffffffffffffffffffffffffffffffffffff161415610dd8576040517f08c379a0000000000000000000000000000000000000000000000000000000008152600401610dcf9061262f565b60405180910390fd5b610de1816112c0565b50565b60007f01ffc9a7000000000000000000000000000000000000000000000000000000007bffffffffffffffffffffffffffffffffffffffffffffffffffffffff1916827bffffffffffffffffffffffffffffffffffffffffffffffffffffffff1916149050919050565b60008073ffffffffffffffffffffffffffffffffffffffff166002600084815260200190815260200160002060009054906101000a900473ffffffffffffffffffffffffffffffffffffffff1673ffffffffffffffffffffffffffffffffffffffff1614159050919050565b600033905090565b816004600083815260200190815260200160002060006101000a81548173ffffffffffffffffffffffffffffffffffffffff021916908373ffffffffffffffffffffffffffffffffffffffff160217905550808273ffffffffffffffffffffffffffffffffffffffff16610f35836108d8565b73ffffffffffffffffffffffffffffffffffffffff167f8c5be1e5ebec7d5bd14f71427d1e84f3dd0314c0f7b2291e5b200ac8c7c3b92560405160405180910390a45050565b6000610f8682610e4e565b610fc5576040517f08c379a0000000000000000000000000000000000000000000000000000000008152600401610fbc906126cf565b60405180910390fd5b6000610fd0836108d8565b90508073ffffffffffffffffffffffffffffffffffffffff168473ffffffffffffffffffffffffffffffffffffffff16148061101257506110118185610c58565b5b8061105057508373ffffffffffffffffffffffffffffffffffffffff1661103884610669565b73ffffffffffffffffffffffffffffffffffffffff16145b91505092915050565b8273ffffffffffffffffffffffffffffffffffffffff16611079826108d8565b73ffffffffffffffffffffffffffffffffffffffff16146110cf576040517f08c379a00000000000000000000000000000000000000000000000000000000081526004016110c69061264f565b60405180910390fd5b600073ffffffffffffffffffffffffffffffffffffffff168273ffffffffffffffffffffffffffffffffffffffff16141561113f576040517f08c379a00000000000000000000000000000000000000000000000000000000081526004016111369061268f565b60405180910390fd5b61114a838383611757565b611155600082610ec2565b6001600360008573ffffffffffffffffffffffffffffffffffffffff1673ffffffffffffffffffffffffffffffffffffffff16815260200190815260200160002060008282546111a591906129bb565b925050819055506001600360008473ffffffffffffffffffffffffffffffffffffffff1673ffffffffffffffffffffffffffffffffffffffff16815260200190815260200160002060008282546111fc9190612934565b92505081905550816002600083815260200190815260200160002060006101000a81548173ffffffffffffffffffffffffffffffffffffffff021916908373ffffffffffffffffffffffffffffffffffffffff160217905550808273ffffffffffffffffffffffffffffffffffffffff168473ffffffffffffffffffffffffffffffffffffffff167fddf252ad1be2c89b69c2b068fc378daa952ba7f163c4a11628f55a4df523b3ef60405160405180910390a46112bb83838361175c565b505050565b6000600760009054906101000a900473ffffffffffffffffffffffffffffffffffffffff16905081600760006101000a81548173ffffffffffffffffffffffffffffffffffffffff021916908373ffffffffffffffffffffffffffffffffffffffff1602179055508173ffffffffffffffffffffffffffffffffffffffff168173ffffffffffffffffffffffffffffffffffffffff167f8be0079c531659141344cd1fd0a4f28419497f9722a3daafe3b4186f6b6457e060405160405180910390a35050565b8173ffffffffffffffffffffffffffffffffffffffff168373ffffffffffffffffffffffffffffffffffffffff1614156113f5576040517f08c379a00000000000000000000000000000000000000000000000000000000081526004016113ec906126af565b60405180910390fd5b80600560008573ffffffffffffffffffffffffffffffffffffffff1673ffffffffffffffffffffffffffffffffffffffff16815260200190815260200160002060008473ffffffffffffffffffffffffffffffffffffffff1673ffffffffffffffffffffffffffffffffffffffff16815260200190815260200160002060006101000a81548160ff0219169083151502179055508173ffffffffffffffffffffffffffffffffffffffff168373ffffffffffffffffffffffffffffffffffffffff167f17307eab39ab6107e8899845ad3d59bd9653f200f220920489ca2b5937696c31836040516114e691906125d2565b60405180910390a3505050565b6114fe848484611059565b61150a84848484611761565b611549576040517f08c379a00000000000000000000000000000000000000000000000000000000081526004016115409061260f565b60405180910390fd5b50505050565b600081600001549050919050565b606061156882610e4e565b6115a7576040517f08c379a000000000000000000000000000000000000000000000000000000000815260040161159e9061278f565b60405180910390fd5b60006006600084815260200190815260200160002080546115c790612aa5565b80601f01602080910402602001604051908101604052809291908181526020018280546115f390612aa5565b80156116405780601f1061161557610100808354040283529160200191611640565b820191906000526020600020905b81548152906001019060200180831161162357829003601f168201915b5050505050905060006116516118f8565b90506000815114156116675781925050506116aa565b60008251111561169c578082604051602001611684929190612547565b604051602081830303815290604052925050506116aa565b6116a58461190f565b925050505b919050565b6001816000016000828254019250508190555050565b6116df8282604051806020016040528060008152506119b6565b5050565b6116ec82610e4e565b61172b576040517f08c379a00000000000000000000000000000000000000000000000000000000081526004016117229061274f565b60405180910390fd5b80600660008481526020019081526020016000209080519060200190611752929190611d6f565b505050565b505050565b505050565b60006117828473ffffffffffffffffffffffffffffffffffffffff16611a11565b156118eb578373ffffffffffffffffffffffffffffffffffffffff1663150b7a026117ab610eba565b8786866040518563ffffffff1660e01b81526004016117cd9493929190612586565b602060405180830381600087803b1580156117e757600080fd5b505af192505050801561181857506040513d601f19601f8201168201806040525081019061181591906121a7565b60015b61189b573d8060008114611848576040519150601f19603f3d011682016040523d82523d6000602084013e61184d565b606091505b50600081511415611893576040517f08c379a000000000000000000000000000000000000000000000000000000000815260040161188a9061260f565b60405180910390fd5b805181602001fd5b63150b7a0260e01b7bffffffffffffffffffffffffffffffffffffffffffffffffffffffff1916817bffffffffffffffffffffffffffffffffffffffffffffffffffffffff1916149150506118f0565b600190505b949350505050565b606060405180602001604052806000815250905090565b606061191a82610e4e565b611959576040517f08c379a0000000000000000000000000000000000000000000000000000000008152600401611950906127ef565b60405180910390fd5b60006119636118f8565b9050600081511161198357604051806020016040528060008152506119ae565b8061198d84611a34565b60405160200161199e929190612547565b6040516020818303038152906040525b915050919050565b6119c08383611b95565b6119cd6000848484611761565b611a0c576040517f08c379a0000000000000000000000000000000000000000000000000000000008152600401611a039061260f565b60405180910390fd5b505050565b6000808273ffffffffffffffffffffffffffffffffffffffff163b119050919050565b60606000821415611a7c576040518060400160405280600181526020017f30000000000000000000000000000000000000000000000000000000000000008152509050611b90565b600082905060005b60008214611aae578080611a9790612b08565b915050600a82611aa7919061298a565b9150611a84565b60008167ffffffffffffffff811115611aca57611ac9612c3e565b5b6040519080825280601f01601f191660200182016040528015611afc5781602001600182028036833780820191505090505b5090505b60008514611b8957600182611b1591906129bb565b9150600a85611b249190612b51565b6030611b309190612934565b60f81b818381518110611b4657611b45612c0f565b5b60200101907effffffffffffffffffffffffffffffffffffffffffffffffffffffffffffff1916908160001a905350600a85611b82919061298a565b9450611b00565b8093505050505b919050565b600073ffffffffffffffffffffffffffffffffffffffff168273ffffffffffffffffffffffffffffffffffffffff161415611c05576040517f08c379a0000000000000000000000000000000000000000000000000000000008152600401611bfc9061276f565b60405180910390fd5b611c0e81610e4e565b15611c4e576040517f08c379a0000000000000000000000000000000000000000000000000000000008152600401611c459061266f565b60405180910390fd5b611c5a60008383611757565b6001600360008473ffffffffffffffffffffffffffffffffffffffff1673ffffffffffffffffffffffffffffffffffffffff1681526020019081526020016000206000828254611caa9190612934565b92505081905550816002600083815260200190815260200160002060006101000a81548173ffffffffffffffffffffffffffffffffffffffff021916908373ffffffffffffffffffffffffffffffffffffffff160217905550808273ffffffffffffffffffffffffffffffffffffffff16600073ffffffffffffffffffffffffffffffffffffffff167fddf252ad1be2c89b69c2b068fc378daa952ba7f163c4a11628f55a4df523b3ef60405160405180910390a4611d6b6000838361175c565b5050565b828054611d7b90612aa5565b90600052602060002090601f016020900481019282611d9d5760008555611de4565b82601f10611db657805160ff1916838001178555611de4565b82800160010185558215611de4579182015b82811115611de3578251825591602001919060010190611dc8565b5b509050611df19190611df5565b5090565b5b80821115611e0e576000816000905550600101611df6565b5090565b6000611e25611e208461288f565b61286a565b905082815260208101848484011115611e4157611e40612c72565b5b611e4c848285612a63565b509392505050565b6000611e67611e62846128c0565b61286a565b905082815260208101848484011115611e8357611e82612c72565b5b611e8e848285612a63565b509392505050565b600081359050611ea581613188565b92915050565b600081359050611eba8161319f565b92915050565b600081359050611ecf816131b6565b92915050565b600081519050611ee4816131b6565b92915050565b600082601f830112611eff57611efe612c6d565b5b8135611f0f848260208601611e12565b91505092915050565b600082601f830112611f2d57611f2c612c6d565b5b8135611f3d848260208601611e54565b91505092915050565b600081359050611f55816131cd565b92915050565b600060208284031215611f7157611f70612c7c565b5b6000611f7f84828501611e96565b91505092915050565b60008060408385031215611f9f57611f9e612c7c565b5b6000611fad85828601611e96565b9250506020611fbe85828601611e96565b9150509250929050565b600080600060608486031215611fe157611fe0612c7c565b5b6000611fef86828701611e96565b935050602061200086828701611e96565b925050604061201186828701611f46565b9150509250925092565b6000806000806080858703121561203557612034612c7c565b5b600061204387828801611e96565b945050602061205487828801611e96565b935050604061206587828801611f46565b925050606085013567ffffffffffffffff81111561208657612085612c77565b5b61209287828801611eea565b91505092959194509250565b600080604083850312156120b5576120b4612c7c565b5b60006120c385828601611e96565b92505060206120d485828601611eab565b9150509250929050565b600080604083850312156120f5576120f4612c7c565b5b600061210385828601611e96565b925050602083013567ffffffffffffffff81111561212457612123612c77565b5b61213085828601611f18565b9150509250929050565b6000806040838503121561215157612150612c7c565b5b600061215f85828601611e96565b925050602061217085828601611f46565b9150509250929050565b6000602082840312156121905761218f612c7c565b5b600061219e84828501611ec0565b91505092915050565b6000602082840312156121bd576121bc612c7c565b5b60006121cb84828501611ed5565b91505092915050565b6000602082840312156121ea576121e9612c7c565b5b60006121f884828501611f46565b91505092915050565b61220a816129ef565b82525050565b61221981612a01565b82525050565b600061222a826128f1565b6122348185612907565b9350612244818560208601612a72565b61224d81612c81565b840191505092915050565b6000612263826128fc565b61226d8185612918565b935061227d818560208601612a72565b61228681612c81565b840191505092915050565b600061229c826128fc565b6122a68185612929565b93506122b6818560208601612a72565b80840191505092915050565b60006122cf603283612918565b91506122da82612c92565b604082019050919050565b60006122f2602683612918565b91506122fd82612ce1565b604082019050919050565b6000612315602583612918565b915061232082612d30565b604082019050919050565b6000612338601c83612918565b915061234382612d7f565b602082019050919050565b600061235b602483612918565b915061236682612da8565b604082019050919050565b600061237e601983612918565b915061238982612df7565b602082019050919050565b60006123a1602c83612918565b91506123ac82612e20565b604082019050919050565b60006123c4603883612918565b91506123cf82612e6f565b604082019050919050565b60006123e7602a83612918565b91506123f282612ebe565b604082019050919050565b600061240a602983612918565b915061241582612f0d565b604082019050919050565b600061242d602e83612918565b915061243882612f5c565b604082019050919050565b6000612450602083612918565b915061245b82612fab565b602082019050919050565b6000612473603183612918565b915061247e82612fd4565b604082019050919050565b6000612496602c83612918565b91506124a182613023565b604082019050919050565b60006124b9602083612918565b91506124c482613072565b602082019050919050565b60006124dc602f83612918565b91506124e78261309b565b604082019050919050565b60006124ff602183612918565b915061250a826130ea565b604082019050919050565b6000612522603183612918565b915061252d82613139565b604082019050919050565b61254181612a59565b82525050565b60006125538285612291565b915061255f8284612291565b91508190509392505050565b60006020820190506125806000830184612201565b92915050565b600060808201905061259b6000830187612201565b6125a86020830186612201565b6125b56040830185612538565b81810360608301526125c7818461221f565b905095945050505050565b60006020820190506125e76000830184612210565b92915050565b600060208201905081810360008301526126078184612258565b905092915050565b60006020820190508181036000830152612628816122c2565b9050919050565b60006020820190508181036000830152612648816122e5565b9050919050565b6000602082019050818103600083015261266881612308565b9050919050565b600060208201905081810360008301526126888161232b565b9050919050565b600060208201905081810360008301526126a88161234e565b9050919050565b600060208201905081810360008301526126c881612371565b9050919050565b600060208201905081810360008301526126e881612394565b9050919050565b60006020820190508181036000830152612708816123b7565b9050919050565b60006020820190508181036000830152612728816123da565b9050919050565b60006020820190508181036000830152612748816123fd565b9050919050565b6000602082019050818103600083015261276881612420565b9050919050565b6000602082019050818103600083015261278881612443565b9050919050565b600060208201905081810360008301526127a881612466565b9050919050565b600060208201905081810360008301526127c881612489565b9050919050565b600060208201905081810360008301526127e8816124ac565b9050919050565b60006020820190508181036000830152612808816124cf565b9050919050565b60006020820190508181036000830152612828816124f2565b9050919050565b6000602082019050818103600083015261284881612515565b9050919050565b60006020820190506128646000830184612538565b92915050565b6000612874612885565b90506128808282612ad7565b919050565b6000604051905090565b600067ffffffffffffffff8211156128aa576128a9612c3e565b5b6128b382612c81565b9050602081019050919050565b600067ffffffffffffffff8211156128db576128da612c3e565b5b6128e482612c81565b9050602081019050919050565b600081519050919050565b600081519050919050565b600082825260208201905092915050565b600082825260208201905092915050565b600081905092915050565b600061293f82612a59565b915061294a83612a59565b9250827fffffffffffffffffffffffffffffffffffffffffffffffffffffffffffffffff0382111561297f5761297e612b82565b5b828201905092915050565b600061299582612a59565b91506129a083612a59565b9250826129b0576129af612bb1565b5b828204905092915050565b60006129c682612a59565b91506129d183612a59565b9250828210156129e4576129e3612b82565b5b828203905092915050565b60006129fa82612a39565b9050919050565b60008115159050919050565b60007fffffffff0000000000000000000000000000000000000000000000000000000082169050919050565b600073ffffffffffffffffffffffffffffffffffffffff82169050919050565b6000819050919050565b82818337600083830152505050565b60005b83811015612a90578082015181840152602081019050612a75565b83811115612a9f576000848401525b50505050565b60006002820490506001821680612abd57607f821691505b60208210811415612ad157612ad0612be0565b5b50919050565b612ae082612c81565b810181811067ffffffffffffffff82111715612aff57612afe612c3e565b5b80604052505050565b6000612b1382612a59565b91507fffffffffffffffffffffffffffffffffffffffffffffffffffffffffffffffff821415612b4657612b45612b82565b5b600182019050919050565b6000612b5c82612a59565b9150612b6783612a59565b925082612b7757612b76612bb1565b5b828206905092915050565b7f4e487b7100000000000000000000000000000000000000000000000000000000600052601160045260246000fd5b7f4e487b7100000000000000000000000000000000000000000000000000000000600052601260045260246000fd5b7f4e487b7100000000000000000000000000000000000000000000000000000000600052602260045260246000fd5b7f4e487b7100000000000000000000000000000000000000000000000000000000600052603260045260246000fd5b7f4e487b7100000000000000000000000000000000000000000000000000000000600052604160045260246000fd5b600080fd5b600080fd5b600080fd5b600080fd5b6000601f19601f8301169050919050565b7f4552433732313a207472616e7366657220746f206e6f6e20455243373231526560008201527f63656976657220696d706c656d656e7465720000000000000000000000000000602082015250565b7f4f776e61626c653a206e6577206f776e657220697320746865207a65726f206160008201527f6464726573730000000000000000000000000000000000000000000000000000602082015250565b7f4552433732313a207472616e736665722066726f6d20696e636f72726563742060008201527f6f776e6572000000000000000000000000000000000000000000000000000000602082015250565b7f4552433732313a20746f6b656e20616c7265616479206d696e74656400000000600082015250565b7f4552433732313a207472616e7366657220746f20746865207a65726f2061646460008201527f7265737300000000000000000000000000000000000000000000000000000000602082015250565b7f4552433732313a20617070726f766520746f2063616c6c657200000000000000600082015250565b7f4552433732313a206f70657261746f7220717565727920666f72206e6f6e657860008201527f697374656e7420746f6b656e0000000000000000000000000000000000000000602082015250565b7f4552433732313a20617070726f76652063616c6c6572206973206e6f74206f7760008201527f6e6572206e6f7220617070726f76656420666f7220616c6c0000000000000000602082015250565b7f4552433732313a2062616c616e636520717565727920666f7220746865207a6560008201527f726f206164647265737300000000000000000000000000000000000000000000602082015250565b7f4552433732313a206f776e657220717565727920666f72206e6f6e657869737460008201527f656e7420746f6b656e0000000000000000000000000000000000000000000000602082015250565b7f45524337323155524953746f726167653a2055524920736574206f66206e6f6e60008201527f6578697374656e7420746f6b656e000000000000000000000000000000000000602082015250565b7f4552433732313a206d696e7420746f20746865207a65726f2061646472657373600082015250565b7f45524337323155524953746f726167653a2055524920717565727920666f722060008201527f6e6f6e6578697374656e7420746f6b656e000000000000000000000000000000602082015250565b7f4552433732313a20617070726f76656420717565727920666f72206e6f6e657860008201527f697374656e7420746f6b656e0000000000000000000000000000000000000000602082015250565b7f4f776e61626c653a2063616c6c6572206973206e6f7420746865206f776e6572600082015250565b7f4552433732314d657461646174613a2055524920717565727920666f72206e6f60008201527f6e6578697374656e7420746f6b656e0000000000000000000000000000000000602082015250565b7f4552433732313a20617070726f76616c20746f2063757272656e74206f776e6560008201527f7200000000000000000000000000000000000000000000000000000000000000602082015250565b7f4552433732313a207472616e736665722063616c6c6572206973206e6f74206f60008201527f776e6572206e6f7220617070726f766564000000000000000000000000000000602082015250565b613191816129ef565b811461319c57600080fd5b50565b6131a881612a01565b81146131b357600080fd5b50565b6131bf81612a0d565b81146131ca57600080fd5b50565b6131d681612a59565b81146131e157600080fd5b5056fea2646970667358221220eba6e17c92dbb66327b90d3f62374d87b4694259bdc546d8e63903cf7563ee8b64736f6c63430008070033",
  "linkReferences": {},
  "deployedLinkReferences": {}
}